{
  "contractName": "LXServiceHost",
  "abi": [
    {
      "inputs": [],
      "payable": false,
      "stateMutability": "nonpayable",
      "type": "constructor"
    },
    {
      "anonymous": false,
      "inputs": [
        {
          "indexed": true,
          "internalType": "address",
          "name": "_memberAddr",
          "type": "address"
        },
        {
          "indexed": true,
          "internalType": "uint256",
          "name": "_residencesNum",
          "type": "uint256"
        },
        {
          "indexed": false,
          "internalType": "string",
          "name": "_myGeonick",
          "type": "string"
        },
        {
          "indexed": false,
          "internalType": "string",
          "name": "_gs1",
          "type": "string"
        },
        {
          "indexed": false,
          "internalType": "string",
          "name": "_streetAddress",
          "type": "string"
        },
        {
          "indexed": false,
          "internalType": "string",
          "name": "_gridAddress",
          "type": "string"
        },
        {
          "indexed": false,
          "internalType": "bytes32",
          "name": "_blockhash",
          "type": "bytes32"
        }
      ],
      "name": "DeleteResidence",
      "type": "event"
    },
    {
      "anonymous": false,
      "inputs": [
        {
          "indexed": true,
          "internalType": "address",
          "name": "_memberAddr",
          "type": "address"
        },
        {
          "indexed": true,
          "internalType": "uint256",
          "name": "_memberNum",
          "type": "uint256"
        },
        {
          "indexed": false,
          "internalType": "bytes32",
          "name": "_blockhash",
          "type": "bytes32"
        }
      ],
      "name": "DeregisterMember",
      "type": "event"
    },
    {
      "anonymous": false,
      "inputs": [
        {
          "indexed": true,
          "internalType": "address",
          "name": "_requesterAddr",
          "type": "address"
        },
        {
          "indexed": true,
          "internalType": "address",
          "name": "_memberAddr",
          "type": "address"
        },
        {
          "indexed": false,
          "internalType": "uint256",
          "name": "_residencesNum",
          "type": "uint256"
        },
        {
          "indexed": false,
          "internalType": "bool",
          "name": "_approvalStatus",
          "type": "bool"
        },
        {
          "indexed": false,
          "internalType": "bytes32",
          "name": "_blockhash",
          "type": "bytes32"
        }
      ],
      "name": "PreConsentTo",
      "type": "event"
    },
    {
      "anonymous": false,
      "inputs": [
        {
          "indexed": true,
          "internalType": "address",
          "name": "_requesterAddr",
          "type": "address"
        },
        {
          "indexed": true,
          "internalType": "address",
          "name": "_memberAddr",
          "type": "address"
        },
        {
          "indexed": false,
          "internalType": "uint256",
          "name": "_residencesNum",
          "type": "uint256"
        },
        {
          "indexed": false,
          "internalType": "bool",
          "name": "_approvalStatus",
          "type": "bool"
        },
        {
          "indexed": false,
          "internalType": "bytes32",
          "name": "_blockhash",
          "type": "bytes32"
        }
      ],
      "name": "RealTimeConsentTo",
      "type": "event"
    },
    {
      "anonymous": false,
      "inputs": [
        {
          "indexed": true,
          "internalType": "address",
          "name": "_memberAddr",
          "type": "address"
        },
        {
          "indexed": true,
          "internalType": "uint256",
          "name": "_memberNum",
          "type": "uint256"
        },
        {
          "indexed": false,
          "internalType": "bytes32",
          "name": "_blockhash",
          "type": "bytes32"
        }
      ],
      "name": "RegisterMember",
      "type": "event"
    },
    {
      "anonymous": false,
      "inputs": [
        {
          "indexed": true,
          "internalType": "address",
          "name": "_memberAddr",
          "type": "address"
        },
        {
          "indexed": true,
          "internalType": "uint256",
          "name": "_residencesNum",
          "type": "uint256"
        },
        {
          "indexed": false,
          "internalType": "string",
          "name": "_myGeonick",
          "type": "string"
        },
        {
          "indexed": false,
          "internalType": "string",
          "name": "_gs1",
          "type": "string"
        },
        {
          "indexed": false,
          "internalType": "string",
          "name": "_streetAddress",
          "type": "string"
        },
        {
          "indexed": false,
          "internalType": "string",
          "name": "_gridAddress",
          "type": "string"
        },
        {
          "indexed": false,
          "internalType": "bytes32",
          "name": "_blockhash",
          "type": "bytes32"
        }
      ],
      "name": "RegisterNewResidence",
      "type": "event"
    },
    {
      "anonymous": false,
      "inputs": [
        {
          "indexed": true,
          "internalType": "address",
          "name": "_requesterAddr",
          "type": "address"
        },
        {
          "indexed": false,
          "internalType": "uint256",
          "name": "_residencesNum",
          "type": "uint256"
        },
        {
          "indexed": false,
          "internalType": "bytes32",
          "name": "_blockhash",
          "type": "bytes32"
        }
      ],
      "name": "RequestForAddress",
      "type": "event"
    },
    {
      "anonymous": false,
      "inputs": [
        {
          "indexed": true,
          "internalType": "address",
          "name": "_memberAddr",
          "type": "address"
        },
        {
          "indexed": true,
          "internalType": "uint256",
          "name": "_residencesNum",
          "type": "uint256"
        },
        {
          "indexed": false,
          "internalType": "string",
          "name": "_myGeonick",
          "type": "string"
        },
        {
          "indexed": false,
          "internalType": "string",
          "name": "_gs1",
          "type": "string"
        },
        {
          "indexed": false,
          "internalType": "string",
          "name": "_streetAddress",
          "type": "string"
        },
        {
          "indexed": false,
          "internalType": "string",
          "name": "_gridAddress",
          "type": "string"
        },
        {
          "indexed": false,
          "internalType": "bytes32",
          "name": "_blockhash",
          "type": "bytes32"
        }
      ],
      "name": "UpdateResidence",
      "type": "event"
    },
    {
      "constant": false,
      "inputs": [
        {
          "internalType": "address",
          "name": "_memberAddr",
          "type": "address"
        },
        {
          "internalType": "uint256",
          "name": "_memberPk",
          "type": "uint256"
        }
      ],
      "name": "registerMember",
      "outputs": [
        {
          "internalType": "bool",
          "name": "",
          "type": "bool"
        }
      ],
      "payable": false,
      "stateMutability": "nonpayable",
      "type": "function"
    },
    {
      "constant": false,
      "inputs": [
        {
          "internalType": "address",
          "name": "_memberAddr",
          "type": "address"
        },
        {
          "internalType": "uint256",
          "name": "_memberPk",
          "type": "uint256"
        }
      ],
      "name": "deregisterMember",
      "outputs": [
        {
          "internalType": "bool",
          "name": "",
          "type": "bool"
        }
      ],
      "payable": false,
      "stateMutability": "nonpayable",
      "type": "function"
    },
    {
      "constant": false,
      "inputs": [
        {
          "internalType": "address",
          "name": "_memberAddr",
          "type": "address"
        },
        {
          "internalType": "uint256",
          "name": "_residencesNum",
          "type": "uint256"
        },
        {
          "internalType": "string",
          "name": "_myGeonick",
          "type": "string"
        },
        {
          "internalType": "string",
          "name": "_gs1",
          "type": "string"
        },
        {
          "internalType": "string",
          "name": "_streetAddress",
          "type": "string"
        },
        {
          "internalType": "string",
          "name": "_gridAddress",
          "type": "string"
        }
      ],
      "name": "registerResidence",
      "outputs": [
        {
          "internalType": "bool",
          "name": "",
          "type": "bool"
        }
      ],
      "payable": false,
      "stateMutability": "nonpayable",
      "type": "function"
    },
    {
      "constant": false,
      "inputs": [
        {
          "internalType": "address",
          "name": "_memberAddr",
          "type": "address"
        },
        {
          "internalType": "uint256",
          "name": "_residencesNum",
          "type": "uint256"
        },
        {
          "internalType": "string",
          "name": "_myGeonick",
          "type": "string"
        },
        {
          "internalType": "string",
          "name": "_gs1",
          "type": "string"
        },
        {
          "internalType": "string",
          "name": "_streetAddress",
          "type": "string"
        },
        {
          "internalType": "string",
          "name": "_gridAddress",
          "type": "string"
        }
      ],
      "name": "updateResidence",
      "outputs": [
        {
          "internalType": "bool",
          "name": "",
          "type": "bool"
        }
      ],
      "payable": false,
      "stateMutability": "nonpayable",
      "type": "function"
    },
    {
      "constant": false,
      "inputs": [
        {
          "internalType": "address",
          "name": "_memberAddrFrom",
          "type": "address"
        },
        {
          "internalType": "address",
          "name": "_memberAddrTo",
          "type": "address"
        },
        {
          "internalType": "uint256",
          "name": "_residencesNum",
          "type": "uint256"
        }
      ],
      "name": "transferOwnershipTo",
      "outputs": [
        {
          "internalType": "bool",
          "name": "",
          "type": "bool"
        }
      ],
      "payable": false,
      "stateMutability": "nonpayable",
      "type": "function"
    },
    {
      "constant": false,
      "inputs": [
        {
          "internalType": "address",
          "name": "_memberAddr",
          "type": "address"
        },
        {
          "internalType": "uint256",
          "name": "_residencesNum",
          "type": "uint256"
        }
      ],
      "name": "deleteResidence",
      "outputs": [
        {
          "internalType": "bool",
          "name": "",
          "type": "bool"
        }
      ],
      "payable": false,
      "stateMutability": "nonpayable",
      "type": "function"
    },
    {
      "constant": false,
      "inputs": [
        {
          "internalType": "address",
          "name": "_memberAddr",
          "type": "address"
        },
        {
          "internalType": "address",
          "name": "_requester",
          "type": "address"
        },
        {
          "internalType": "uint256",
          "name": "_residencesNum",
          "type": "uint256"
        },
        {
          "internalType": "bool",
          "name": "_approvalStatus",
          "type": "bool"
        }
      ],
      "name": "allowAccessTo",
      "outputs": [
        {
          "internalType": "bool",
          "name": "",
          "type": "bool"
        }
      ],
      "payable": false,
      "stateMutability": "nonpayable",
      "type": "function"
    },
    {
      "constant": false,
      "inputs": [
        {
          "internalType": "address",
          "name": "_requestFrom",
          "type": "address"
        },
        {
          "internalType": "uint256",
          "name": "_residencesNum",
          "type": "uint256"
        }
      ],
      "name": "getResidence",
      "outputs": [
        {
          "internalType": "bool",
          "name": "_success",
          "type": "bool"
        },
        {
          "internalType": "string",
          "name": "_myGeonick",
          "type": "string"
        },
        {
          "internalType": "string",
          "name": "_gs1",
          "type": "string"
        },
        {
          "internalType": "string",
          "name": "_streetAddress",
          "type": "string"
        },
        {
          "internalType": "string",
          "name": "_gridAddress",
          "type": "string"
        }
      ],
      "payable": false,
      "stateMutability": "nonpayable",
      "type": "function"
    },
    {
      "constant": false,
      "inputs": [
        {
          "internalType": "address",
          "name": "_requestFrom",
          "type": "address"
        },
        {
          "internalType": "uint256",
          "name": "_residencesNum",
          "type": "uint256"
        }
      ],
      "name": "getRealtimeConsent",
      "outputs": [
        {
          "internalType": "bool",
          "name": "_success",
          "type": "bool"
        },
        {
          "internalType": "string",
          "name": "_myGeonick",
          "type": "string"
        },
        {
          "internalType": "string",
          "name": "_gs1",
          "type": "string"
        },
        {
          "internalType": "string",
          "name": "_streetAddress",
          "type": "string"
        },
        {
          "internalType": "string",
          "name": "_gridAddress",
          "type": "string"
        }
      ],
      "payable": false,
      "stateMutability": "nonpayable",
      "type": "function"
    },
    {
      "constant": true,
      "inputs": [
        {
          "internalType": "address",
          "name": "_memberAddr",
          "type": "address"
        }
      ],
      "name": "getResidenceCount",
      "outputs": [
        {
          "internalType": "bool",
          "name": "_success",
          "type": "bool"
        },
        {
          "internalType": "uint256",
          "name": "_residencesNumCount",
          "type": "uint256"
        }
      ],
      "payable": false,
      "stateMutability": "view",
      "type": "function"
    },
    {
      "constant": true,
      "inputs": [
        {
          "internalType": "address",
          "name": "_memberAddr",
          "type": "address"
        }
      ],
      "name": "getResidenceList",
      "outputs": [
        {
          "internalType": "bool",
          "name": "_success",
          "type": "bool"
        },
        {
          "internalType": "uint256[]",
          "name": "_residenceList",
          "type": "uint256[]"
        }
      ],
      "payable": false,
      "stateMutability": "view",
      "type": "function"
    },
    {
      "constant": false,
      "inputs": [
        {
          "internalType": "string",
          "name": "_myGeonick",
          "type": "string"
        },
        {
          "internalType": "string",
          "name": "_gs1",
          "type": "string"
        }
      ],
      "name": "freeMyGeonick",
      "outputs": [
        {
          "internalType": "bool",
          "name": "_success",
          "type": "bool"
        }
      ],
      "payable": false,
      "stateMutability": "nonpayable",
      "type": "function"
    }
  ],
  "bytecode": "0x608060405234801561001057600080fd5b50336000806101000a81548173ffffffffffffffffffffffffffffffffffffffff021916908373ffffffffffffffffffffffffffffffffffffffff1602179055506151ad806100606000396000f3fe608060405234801561001057600080fd5b50600436106100b35760003560e01c8063d2a7ebd111610071578063d2a7ebd1146109a1578063d5abe39414610a07578063e1f64def14610aab578063e493fd0614610b3d578063f620e5f914610ca7578063f77c35f714610ebd576100b3565b8062f154fa146100b857806346344de01461013e57806360a70155146104005780639d7ef093146106c2578063a343df8014610728578063bb05820d1461078b575b600080fd5b610124600480360360608110156100ce57600080fd5b81019080803573ffffffffffffffffffffffffffffffffffffffff169060200190929190803573ffffffffffffffffffffffffffffffffffffffff16906020019092919080359060200190929190505050610f23565b604051808215151515815260200191505060405180910390f35b6103e6600480360360c081101561015457600080fd5b81019080803573ffffffffffffffffffffffffffffffffffffffff169060200190929190803590602001909291908035906020019064010000000081111561019b57600080fd5b8201836020820111156101ad57600080fd5b803590602001918460018302840111640100000000831117156101cf57600080fd5b91908080601f016020809104026020016040519081016040528093929190818152602001838380828437600081840152601f19601f8201169050808301925050505050505091929192908035906020019064010000000081111561023257600080fd5b82018360208201111561024457600080fd5b8035906020019184600183028401116401000000008311171561026657600080fd5b91908080601f016020809104026020016040519081016040528093929190818152602001838380828437600081840152601f19601f820116905080830192505050505050509192919290803590602001906401000000008111156102c957600080fd5b8201836020820111156102db57600080fd5b803590602001918460018302840111640100000000831117156102fd57600080fd5b91908080601f016020809104026020016040519081016040528093929190818152602001838380828437600081840152601f19601f8201169050808301925050505050505091929192908035906020019064010000000081111561036057600080fd5b82018360208201111561037257600080fd5b8035906020019184600183028401116401000000008311171561039457600080fd5b91908080601f016020809104026020016040519081016040528093929190818152602001838380828437600081840152601f19601f82011690508083019250505050505050919291929050505061173c565b604051808215151515815260200191505060405180910390f35b6106a8600480360360c081101561041657600080fd5b81019080803573ffffffffffffffffffffffffffffffffffffffff169060200190929190803590602001909291908035906020019064010000000081111561045d57600080fd5b82018360208201111561046f57600080fd5b8035906020019184600183028401116401000000008311171561049157600080fd5b91908080601f016020809104026020016040519081016040528093929190818152602001838380828437600081840152601f19601f820116905080830192505050505050509192919290803590602001906401000000008111156104f457600080fd5b82018360208201111561050657600080fd5b8035906020019184600183028401116401000000008311171561052857600080fd5b91908080601f016020809104026020016040519081016040528093929190818152602001838380828437600081840152601f19601f8201169050808301925050505050505091929192908035906020019064010000000081111561058b57600080fd5b82018360208201111561059d57600080fd5b803590602001918460018302840111640100000000831117156105bf57600080fd5b91908080601f016020809104026020016040519081016040528093929190818152602001838380828437600081840152601f19601f8201169050808301925050505050505091929192908035906020019064010000000081111561062257600080fd5b82018360208201111561063457600080fd5b8035906020019184600183028401116401000000008311171561065657600080fd5b91908080601f016020809104026020016040519081016040528093929190818152602001838380828437600081840152601f19601f820116905080830192505050505050509192919290505050612033565b604051808215151515815260200191505060405180910390f35b61070e600480360360408110156106d857600080fd5b81019080803573ffffffffffffffffffffffffffffffffffffffff16906020019092919080359060200190929190505050612a64565b604051808215151515815260200191505060405180910390f35b61076a6004803603602081101561073e57600080fd5b81019080803573ffffffffffffffffffffffffffffffffffffffff169060200190929190505050612f17565b60405180831515151581526020018281526020019250505060405180910390f35b6107d7600480360360408110156107a157600080fd5b81019080803573ffffffffffffffffffffffffffffffffffffffff16906020019092919080359060200190929190505050613060565b604051808615151515815260200180602001806020018060200180602001858103855289818151815260200191508051906020019080838360005b8381101561082d578082015181840152602081019050610812565b50505050905090810190601f16801561085a5780820380516001836020036101000a031916815260200191505b50858103845288818151815260200191508051906020019080838360005b83811015610893578082015181840152602081019050610878565b50505050905090810190601f1680156108c05780820380516001836020036101000a031916815260200191505b50858103835287818151815260200191508051906020019080838360005b838110156108f95780820151818401526020810190506108de565b50505050905090810190601f1680156109265780820380516001836020036101000a031916815260200191505b50858103825286818151815260200191508051906020019080838360005b8381101561095f578082015181840152602081019050610944565b50505050905090810190601f16801561098c5780820380516001836020036101000a031916815260200191505b50995050505050505050505060405180910390f35b6109ed600480360360408110156109b757600080fd5b81019080803573ffffffffffffffffffffffffffffffffffffffff16906020019092919080359060200190929190505050613677565b604051808215151515815260200191505060405180910390f35b610a4960048036036020811015610a1d57600080fd5b81019080803573ffffffffffffffffffffffffffffffffffffffff1690602001909291905050506136d3565b604051808315151515815260200180602001828103825283818151815260200191508051906020019060200280838360005b83811015610a96578082015181840152602081019050610a7b565b50505050905001935050505060405180910390f35b610b2360048036036080811015610ac157600080fd5b81019080803573ffffffffffffffffffffffffffffffffffffffff169060200190929190803573ffffffffffffffffffffffffffffffffffffffff1690602001909291908035906020019092919080351515906020019092919050505061386b565b604051808215151515815260200191505060405180910390f35b610c8d60048036036040811015610b5357600080fd5b8101908080359060200190640100000000811115610b7057600080fd5b820183602082011115610b8257600080fd5b80359060200191846001830284011164010000000083111715610ba457600080fd5b91908080601f016020809104026020016040519081016040528093929190818152602001838380828437600081840152601f19601f82011690508083019250505050505050919291929080359060200190640100000000811115610c0757600080fd5b820183602082011115610c1957600080fd5b80359060200191846001830284011164010000000083111715610c3b57600080fd5b91908080601f016020809104026020016040519081016040528093929190818152602001838380828437600081840152601f19601f820116905080830192505050505050509192919290505050613ba0565b604051808215151515815260200191505060405180910390f35b610cf360048036036040811015610cbd57600080fd5b81019080803573ffffffffffffffffffffffffffffffffffffffff16906020019092919080359060200190929190505050613d72565b604051808615151515815260200180602001806020018060200180602001858103855289818151815260200191508051906020019080838360005b83811015610d49578082015181840152602081019050610d2e565b50505050905090810190601f168015610d765780820380516001836020036101000a031916815260200191505b50858103845288818151815260200191508051906020019080838360005b83811015610daf578082015181840152602081019050610d94565b50505050905090810190601f168015610ddc5780820380516001836020036101000a031916815260200191505b50858103835287818151815260200191508051906020019080838360005b83811015610e15578082015181840152602081019050610dfa565b50505050905090810190601f168015610e425780820380516001836020036101000a031916815260200191505b50858103825286818151815260200191508051906020019080838360005b83811015610e7b578082015181840152602081019050610e60565b50505050905090810190601f168015610ea85780820380516001836020036101000a031916815260200191505b50995050505050505050505060405180910390f35b610f0960048036036040811015610ed357600080fd5b81019080803573ffffffffffffffffffffffffffffffffffffffff169060200190929190803590602001909291905050506142bf565b604051808215151515815260200191505060405180910390f35b60006001600083815260200190815260200160002060009054906101000a900460ff16610f9b576040517f08c379a00000000000000000000000000000000000000000000000000000000081526004018080602001828103825260248152602001806150e96024913960400191505060405180910390fd5b3373ffffffffffffffffffffffffffffffffffffffff166000809054906101000a900473ffffffffffffffffffffffffffffffffffffffff1673ffffffffffffffffffffffffffffffffffffffff16148061102157503373ffffffffffffffffffffffffffffffffffffffff168473ffffffffffffffffffffffffffffffffffffffff16145b611093576040517f08c379a00000000000000000000000000000000000000000000000000000000081526004018080602001828103825260198152602001807f5b4552522d31303035335d204143434553535f44454e4945440000000000000081525060200191505060405180910390fd5b8373ffffffffffffffffffffffffffffffffffffffff166004600084815260200190815260200160002060009054906101000a900473ffffffffffffffffffffffffffffffffffffffff1673ffffffffffffffffffffffffffffffffffffffff161461114a576040517f08c379a000000000000000000000000000000000000000000000000000000000815260040180806020018281038252602481526020018061507f6024913960400191505060405180910390fd5b6000600660008673ffffffffffffffffffffffffffffffffffffffff1673ffffffffffffffffffffffffffffffffffffffff16815260200190815260200160002060010160008481526020019081526020016000205414156111f7576040517f08c379a00000000000000000000000000000000000000000000000000000000081526004018080602001828103825260238152602001806150a36023913960400191505060405180910390fd5b60006001600660008773ffffffffffffffffffffffffffffffffffffffff1673ffffffffffffffffffffffffffffffffffffffff1681526020019081526020016000206001016000858152602001908152602001600020540390506000600660008773ffffffffffffffffffffffffffffffffffffffff1673ffffffffffffffffffffffffffffffffffffffff16815260200190815260200160002060020182815481106112a157fe5b906000526020600020015490506000600660008873ffffffffffffffffffffffffffffffffffffffff1673ffffffffffffffffffffffffffffffffffffffff1681526020019081526020016000206002016001600660008a73ffffffffffffffffffffffffffffffffffffffff1673ffffffffffffffffffffffffffffffffffffffff16815260200190815260200160002060000154038154811061134257fe5b9060005260206000200154905080600660008973ffffffffffffffffffffffffffffffffffffffff1673ffffffffffffffffffffffffffffffffffffffff168152602001908152602001600020600201848154811061139d57fe5b90600052602060002001819055506000600660008973ffffffffffffffffffffffffffffffffffffffff1673ffffffffffffffffffffffffffffffffffffffff16815260200190815260200160002060010160008481526020019081526020016000208190555060018301600660008973ffffffffffffffffffffffffffffffffffffffff1673ffffffffffffffffffffffffffffffffffffffff1681526020019081526020016000206001016000838152602001908152602001600020819055506001600660008973ffffffffffffffffffffffffffffffffffffffff1673ffffffffffffffffffffffffffffffffffffffff16815260200190815260200160002060000160008282540392505081905550600660008873ffffffffffffffffffffffffffffffffffffffff1673ffffffffffffffffffffffffffffffffffffffff1681526020019081526020016000206002018054806114fb57fe5b600190038181906000526020600020016000905590556040518060200160405280600081525060056000878152602001908152602001600020600201908051906020019061154a929190614f11565b5060405180602001604052806000815250600560008781526020019081526020016000206003019080519060200190611584929190614f11565b50856004600087815260200190815260200160002060006101000a81548173ffffffffffffffffffffffffffffffffffffffff021916908373ffffffffffffffffffffffffffffffffffffffff160217905550600660008773ffffffffffffffffffffffffffffffffffffffff1673ffffffffffffffffffffffffffffffffffffffff1681526020019081526020016000206002018590806001815401808255809150509060018203906000526020600020016000909192909190915055506001600660008873ffffffffffffffffffffffffffffffffffffffff1673ffffffffffffffffffffffffffffffffffffffff16815260200190815260200160002060000160008282540192505081905550600660008773ffffffffffffffffffffffffffffffffffffffff1673ffffffffffffffffffffffffffffffffffffffff16815260200190815260200160002060000154600660008873ffffffffffffffffffffffffffffffffffffffff1673ffffffffffffffffffffffffffffffffffffffff168152602001908152602001600020600101600087815260200190815260200160002081905550600193505050509392505050565b60006001600087815260200190815260200160002060009054906101000a900460ff16156117d2576040517f08c379a00000000000000000000000000000000000000000000000000000000081526004018080602001828103825260208152602001807f5b4552522d31303031305d205245534944454e43455f4e554d5f45584953545381525060200191505060405180910390fd5b6002856040518082805190602001908083835b6020831061180857805182526020820191506020810190506020830392506117e5565b6001836020036101000a038019825116818451168082178552505050505050905001915050908152602001604051809103902060009054906101000a900460ff16156118bc576040517f08c379a000000000000000000000000000000000000000000000000000000000815260040180806020018281038252601c8152602001807f5b4552522d31303031315d204d5947454f4e49434b5f4558495354530000000081525060200191505060405180910390fd5b6003846040518082805190602001908083835b602083106118f257805182526020820191506020810190506020830392506118cf565b6001836020036101000a038019825116818451168082178552505050505050905001915050908152602001604051809103902060009054906101000a900460ff16156119a6576040517f08c379a000000000000000000000000000000000000000000000000000000000815260040180806020018281038252601b8152602001807f5b4552522d31303031325d204753315f434f44455f455849535453000000000081525060200191505060405180910390fd5b3373ffffffffffffffffffffffffffffffffffffffff166000809054906101000a900473ffffffffffffffffffffffffffffffffffffffff1673ffffffffffffffffffffffffffffffffffffffff161480611a2c57503373ffffffffffffffffffffffffffffffffffffffff168773ffffffffffffffffffffffffffffffffffffffff16145b611a9e576040517f08c379a00000000000000000000000000000000000000000000000000000000081526004018080602001828103825260198152602001807f5b4552522d31303031335d204143434553535f44454e4945440000000000000081525060200191505060405180910390fd5b600180600088815260200190815260200160002060006101000a81548160ff02191690831515021790555060016002866040518082805190602001908083835b60208310611b015780518252602082019150602081019050602083039250611ade565b6001836020036101000a038019825116818451168082178552505050505050905001915050908152602001604051809103902060006101000a81548160ff02191690831515021790555060016003856040518082805190602001908083835b60208310611b835780518252602082019150602081019050602083039250611b60565b6001836020036101000a038019825116818451168082178552505050505050905001915050908152602001604051809103902060006101000a81548160ff021916908315150217905550604051806080016040528086815260200185815260200184815260200183815250600560008881526020019081526020016000206000820151816000019080519060200190611c1d929190614f91565b506020820151816001019080519060200190611c3a929190614f91565b506040820151816002019080519060200190611c57929190614f91565b506060820151816003019080519060200190611c74929190614f91565b50905050866004600088815260200190815260200160002060006101000a81548173ffffffffffffffffffffffffffffffffffffffff021916908373ffffffffffffffffffffffffffffffffffffffff160217905550600660008873ffffffffffffffffffffffffffffffffffffffff1673ffffffffffffffffffffffffffffffffffffffff1681526020019081526020016000206002018690806001815401808255809150509060018203906000526020600020016000909192909190915055506001600660008973ffffffffffffffffffffffffffffffffffffffff1673ffffffffffffffffffffffffffffffffffffffff16815260200190815260200160002060000160008282540192505081905550600660008873ffffffffffffffffffffffffffffffffffffffff1673ffffffffffffffffffffffffffffffffffffffff16815260200190815260200160002060000154600660008973ffffffffffffffffffffffffffffffffffffffff1673ffffffffffffffffffffffffffffffffffffffff168152602001908152602001600020600101600088815260200190815260200160002081905550858773ffffffffffffffffffffffffffffffffffffffff167f8fc3f05b3893e7f7e66f5f2b41e0d4858359857237f1dc0abcf24f773cecff91878787874340604051808060200180602001806020018060200186815260200185810385528a818151815260200191508051906020019080838360005b83811015611eb2578082015181840152602081019050611e97565b50505050905090810190601f168015611edf5780820380516001836020036101000a031916815260200191505b50858103845289818151815260200191508051906020019080838360005b83811015611f18578082015181840152602081019050611efd565b50505050905090810190601f168015611f455780820380516001836020036101000a031916815260200191505b50858103835288818151815260200191508051906020019080838360005b83811015611f7e578082015181840152602081019050611f63565b50505050905090810190601f168015611fab5780820380516001836020036101000a031916815260200191505b50858103825287818151815260200191508051906020019080838360005b83811015611fe4578082015181840152602081019050611fc9565b50505050905090810190601f1680156120115780820380516001836020036101000a031916815260200191505b50995050505050505050505060405180910390a3600190509695505050505050565b60006001600087815260200190815260200160002060009054906101000a900460ff166120ab576040517f08c379a000000000000000000000000000000000000000000000000000000000815260040180806020018281038252602481526020018061505b6024913960400191505060405180910390fd5b6002856040518082805190602001908083835b602083106120e157805182526020820191506020810190506020830392506120be565b6001836020036101000a038019825116818451168082178552505050505050905001915050908152602001604051809103902060009054906101000a900460ff1615612195576040517f08c379a000000000000000000000000000000000000000000000000000000000815260040180806020018281038252601c8152602001807f5b4552522d31303034315d204d5947454f4e49434b5f4558495354530000000081525060200191505060405180910390fd5b6003846040518082805190602001908083835b602083106121cb57805182526020820191506020810190506020830392506121a8565b6001836020036101000a038019825116818451168082178552505050505050905001915050908152602001604051809103902060009054906101000a900460ff161561227f576040517f08c379a000000000000000000000000000000000000000000000000000000000815260040180806020018281038252601b8152602001807f5b4552522d31303034325d204753315f434f44455f455849535453000000000081525060200191505060405180910390fd5b3373ffffffffffffffffffffffffffffffffffffffff166000809054906101000a900473ffffffffffffffffffffffffffffffffffffffff1673ffffffffffffffffffffffffffffffffffffffff16148061230557503373ffffffffffffffffffffffffffffffffffffffff168773ffffffffffffffffffffffffffffffffffffffff16145b612377576040517f08c379a00000000000000000000000000000000000000000000000000000000081526004018080602001828103825260198152602001807f5b4552522d31303034335d204143434553535f44454e4945440000000000000081525060200191505060405180910390fd5b8673ffffffffffffffffffffffffffffffffffffffff166004600088815260200190815260200160002060009054906101000a900473ffffffffffffffffffffffffffffffffffffffff1673ffffffffffffffffffffffffffffffffffffffff161461244b576040517f08c379a000000000000000000000000000000000000000000000000000000000815260040180806020018281038252601f8152602001807f5b4552522d31303034345d204d454d4245525f49535f4e4f545f4f574e45520081525060200191505060405180910390fd5b60405180602001604052806000815250805190602001208580519060200120141561252257600560008781526020019081526020016000206000018054600181600116156101000203166002900480601f01602080910402602001604051908101604052809291908181526020018280546001816001161561010002031660029004801561251a5780601f106124ef5761010080835404028352916020019161251a565b820191906000526020600020905b8154815290600101906020018083116124fd57829003601f168201915b505050505094505b6040518060200160405280600081525080519060200120848051906020012014156125f957600560008781526020019081526020016000206001018054600181600116156101000203166002900480601f0160208091040260200160405190810160405280929190818152602001828054600181600116156101000203166002900480156125f15780601f106125c6576101008083540402835291602001916125f1565b820191906000526020600020905b8154815290600101906020018083116125d457829003601f168201915b505050505093505b6040518060200160405280600081525080519060200120838051906020012014156126d057600560008781526020019081526020016000206002018054600181600116156101000203166002900480601f0160208091040260200160405190810160405280929190818152602001828054600181600116156101000203166002900480156126c85780601f1061269d576101008083540402835291602001916126c8565b820191906000526020600020905b8154815290600101906020018083116126ab57829003601f168201915b505050505092505b6040518060200160405280600081525080519060200120828051906020012014156127a757600560008781526020019081526020016000206003018054600181600116156101000203166002900480601f01602080910402602001604051908101604052809291908181526020018280546001816001161561010002031660029004801561279f5780601f106127745761010080835404028352916020019161279f565b820191906000526020600020905b81548152906001019060200180831161278257829003601f168201915b505050505091505b6040518060800160405280868152602001858152602001848152602001838152506005600088815260200190815260200160002060008201518160000190805190602001906127f7929190614f91565b506020820151816001019080519060200190612814929190614f91565b506040820151816002019080519060200190612831929190614f91565b50606082015181600301908051906020019061284e929190614f91565b50905050858773ffffffffffffffffffffffffffffffffffffffff167f2e7451a118c869f7cbe9ce04b2eb7db9959ea090aca6d264f0a618f999d806a8878787874340604051808060200180602001806020018060200186815260200185810385528a818151815260200191508051906020019080838360005b838110156128e35780820151818401526020810190506128c8565b50505050905090810190601f1680156129105780820380516001836020036101000a031916815260200191505b50858103845289818151815260200191508051906020019080838360005b8381101561294957808201518184015260208101905061292e565b50505050905090810190601f1680156129765780820380516001836020036101000a031916815260200191505b50858103835288818151815260200191508051906020019080838360005b838110156129af578082015181840152602081019050612994565b50505050905090810190601f1680156129dc5780820380516001836020036101000a031916815260200191505b50858103825287818151815260200191508051906020019080838360005b83811015612a155780820151818401526020810190506129fa565b50505050905090810190601f168015612a425780820380516001836020036101000a031916815260200191505b50995050505050505050505060405180910390a3600190509695505050505050565b60003373ffffffffffffffffffffffffffffffffffffffff166000809054906101000a900473ffffffffffffffffffffffffffffffffffffffff1673ffffffffffffffffffffffffffffffffffffffff161480612aec57503373ffffffffffffffffffffffffffffffffffffffff168373ffffffffffffffffffffffffffffffffffffffff16145b612b5e576040517f08c379a00000000000000000000000000000000000000000000000000000000081526004018080602001828103825260198152602001807f5b4552522d31303039335d204143434553535f44454e4945440000000000000081525060200191505060405180910390fd5b60008090505b600660008573ffffffffffffffffffffffffffffffffffffffff1673ffffffffffffffffffffffffffffffffffffffff16815260200190815260200160002060000154811015612ebc576000600660008673ffffffffffffffffffffffffffffffffffffffff1673ffffffffffffffffffffffffffffffffffffffff1681526020019081526020016000206002018281548110612bfd57fe5b9060005260206000200154905060006002600560008481526020019081526020016000206000016040518082805460018160011615610100020316600290048015612c7f5780601f10612c5d576101008083540402835291820191612c7f565b820191906000526020600020905b815481529060010190602001808311612c6b575b5050915050908152602001604051809103902060006101000a81548160ff02191690831515021790555060006003600560008481526020019081526020016000206001016040518082805460018160011615610100020316600290048015612d1e5780601f10612cfc576101008083540402835291820191612d1e565b820191906000526020600020905b815481529060010190602001808311612d0a575b5050915050908152602001604051809103902060006101000a81548160ff02191690831515021790555060006001600083815260200190815260200160002060006101000a81548160ff02191690831515021790555060006004600083815260200190815260200160002060006101000a81548173ffffffffffffffffffffffffffffffffffffffff021916908373ffffffffffffffffffffffffffffffffffffffff160217905550604051806080016040528060405180602001604052806000815250815260200160405180602001604052806000815250815260200160405180602001604052806000815250815260200160405180602001604052806000815250815250600560008381526020019081526020016000206000820151816000019080519060200190612e53929190614f91565b506020820151816001019080519060200190612e70929190614f91565b506040820151816002019080519060200190612e8d929190614f91565b506060820151816003019080519060200190612eaa929190614f91565b50905050508080600101915050612b64565b50818373ffffffffffffffffffffffffffffffffffffffff167f2fd37feb274996c4c8748542d776a4ea94f9ba7216f86d856e0d704a056f4b2e43406040518082815260200191505060405180910390a36001905092915050565b6000803373ffffffffffffffffffffffffffffffffffffffff166000809054906101000a900473ffffffffffffffffffffffffffffffffffffffff1673ffffffffffffffffffffffffffffffffffffffff161480612fa057503373ffffffffffffffffffffffffffffffffffffffff168373ffffffffffffffffffffffffffffffffffffffff16145b613012576040517f08c379a00000000000000000000000000000000000000000000000000000000081526004018080602001828103825260198152602001807f5b4552522d31303032335d204143434553535f44454e4945440000000000000081525060200191505060405180910390fd5b600660008473ffffffffffffffffffffffffffffffffffffffff1673ffffffffffffffffffffffffffffffffffffffff16815260200190815260200160002060000154905060019150915091565b60006060806060806001600087815260200190815260200160002060009054906101000a900460ff166130de576040517f08c379a00000000000000000000000000000000000000000000000000000000081526004018080602001828103825260248152602001806150376024913960400191505060405180910390fd5b3373ffffffffffffffffffffffffffffffffffffffff166000809054906101000a900473ffffffffffffffffffffffffffffffffffffffff1673ffffffffffffffffffffffffffffffffffffffff16148061316457503373ffffffffffffffffffffffffffffffffffffffff168773ffffffffffffffffffffffffffffffffffffffff16145b6131d6576040517f08c379a00000000000000000000000000000000000000000000000000000000081526004018080602001828103825260198152602001807f5b4552522d31303038335d204143434553535f44454e4945440000000000000081525060200191505060405180910390fd5b6005600087815260200190815260200160002060040160008873ffffffffffffffffffffffffffffffffffffffff1673ffffffffffffffffffffffffffffffffffffffff16815260200190815260200160002060009054906101000a900460ff16806132a057508673ffffffffffffffffffffffffffffffffffffffff166004600088815260200190815260200160002060009054906101000a900473ffffffffffffffffffffffffffffffffffffffff1673ffffffffffffffffffffffffffffffffffffffff16145b806132f757508673ffffffffffffffffffffffffffffffffffffffff166000809054906101000a900473ffffffffffffffffffffffffffffffffffffffff1673ffffffffffffffffffffffffffffffffffffffff16145b15613620578673ffffffffffffffffffffffffffffffffffffffff167f3db4f9049ca3bf8ab1f73fae8a41c3b43c1f6489ccde1f48bb7c3abe0f9431ef874340604051808381526020018281526020019250505060405180910390a2600560008781526020019081526020016000206000018054600181600116156101000203166002900480601f0160208091040260200160405190810160405280929190818152602001828054600181600116156101000203166002900480156133fd5780601f106133d2576101008083540402835291602001916133fd565b820191906000526020600020905b8154815290600101906020018083116133e057829003601f168201915b50505050509350600560008781526020019081526020016000206001018054600181600116156101000203166002900480601f0160208091040260200160405190810160405280929190818152602001828054600181600116156101000203166002900480156134ae5780601f10613483576101008083540402835291602001916134ae565b820191906000526020600020905b81548152906001019060200180831161349157829003601f168201915b50505050509250600560008781526020019081526020016000206002018054600181600116156101000203166002900480601f01602080910402602001604051908101604052809291908181526020018280546001816001161561010002031660029004801561355f5780601f106135345761010080835404028352916020019161355f565b820191906000526020600020905b81548152906001019060200180831161354257829003601f168201915b50505050509150600560008781526020019081526020016000206003018054600181600116156101000203166002900480601f0160208091040260200160405190810160405280929190818152602001828054600181600116156101000203166002900480156136105780601f106135e557610100808354040283529160200191613610565b820191906000526020600020905b8154815290600101906020018083116135f357829003601f168201915b505050505090506001945061366d565b604051806020016040528060008152509350604051806020016040528060008152509250604051806020016040528060008152509150604051806020016040528060008152509050600094505b9295509295909350565b6000818373ffffffffffffffffffffffffffffffffffffffff167f7e3594b79ed1034a3ac5130a0b97b755d3a52d506d5d85b486ae9d00601e72f943406040518082815260200191505060405180910390a36001905092915050565b600060603373ffffffffffffffffffffffffffffffffffffffff166000809054906101000a900473ffffffffffffffffffffffffffffffffffffffff1673ffffffffffffffffffffffffffffffffffffffff16148061375d57503373ffffffffffffffffffffffffffffffffffffffff168373ffffffffffffffffffffffffffffffffffffffff16145b6137cf576040517f08c379a00000000000000000000000000000000000000000000000000000000081526004018080602001828103825260198152602001807f5b4552522d31303033335d204143434553535f44454e4945440000000000000081525060200191505060405180910390fd5b600660008473ffffffffffffffffffffffffffffffffffffffff1673ffffffffffffffffffffffffffffffffffffffff16815260200190815260200160002060020180548060200260200160405190810160405280929190818152602001828054801561385b57602002820191906000526020600020905b815481526020019060010190808311613847575b5050505050905060019150915091565b60006001600084815260200190815260200160002060009054906101000a900460ff166138e3576040517f08c379a000000000000000000000000000000000000000000000000000000000815260040180806020018281038252602481526020018061510d6024913960400191505060405180910390fd5b3373ffffffffffffffffffffffffffffffffffffffff166000809054906101000a900473ffffffffffffffffffffffffffffffffffffffff1673ffffffffffffffffffffffffffffffffffffffff16148061396957503373ffffffffffffffffffffffffffffffffffffffff168573ffffffffffffffffffffffffffffffffffffffff16145b6139db576040517f08c379a00000000000000000000000000000000000000000000000000000000081526004018080602001828103825260198152602001807f5b4552522d31303037335d204143434553535f44454e4945440000000000000081525060200191505060405180910390fd5b8473ffffffffffffffffffffffffffffffffffffffff166004600085815260200190815260200160002060009054906101000a900473ffffffffffffffffffffffffffffffffffffffff1673ffffffffffffffffffffffffffffffffffffffff1614613aaf576040517f08c379a000000000000000000000000000000000000000000000000000000000815260040180806020018281038252601f8152602001807f5b4552522d31303037345d204d454d4245525f49535f4e4f545f4f574e45520081525060200191505060405180910390fd5b816005600085815260200190815260200160002060040160008673ffffffffffffffffffffffffffffffffffffffff1673ffffffffffffffffffffffffffffffffffffffff16815260200190815260200160002060006101000a81548160ff0219169083151502179055508373ffffffffffffffffffffffffffffffffffffffff168573ffffffffffffffffffffffffffffffffffffffff167fd767fc0ca08b063b7adfb0cf18c45ded5ccc3af715a01a84317e1f23f226c595858543406040518084815260200183151515158152602001828152602001935050505060405180910390a360019050949350505050565b60003373ffffffffffffffffffffffffffffffffffffffff166000809054906101000a900473ffffffffffffffffffffffffffffffffffffffff1673ffffffffffffffffffffffffffffffffffffffff1614613c64576040517f08c379a00000000000000000000000000000000000000000000000000000000081526004018080602001828103825260198152602001807f5b4552522d31303131335d204143434553535f44454e4945440000000000000081525060200191505060405180910390fd5b60006002846040518082805190602001908083835b60208310613c9c5780518252602082019150602081019050602083039250613c79565b6001836020036101000a038019825116818451168082178552505050505050905001915050908152602001604051809103902060006101000a81548160ff02191690831515021790555060006003836040518082805190602001908083835b60208310613d1e5780518252602082019150602081019050602083039250613cfb565b6001836020036101000a038019825116818451168082178552505050505050905001915050908152602001604051809103902060006101000a81548160ff0219169083151502179055506001905092915050565b60006060806060806001600087815260200190815260200160002060009054906101000a900460ff16613df0576040517f08c379a00000000000000000000000000000000000000000000000000000000081526004018080602001828103825260248152602001806151556024913960400191505060405180910390fd5b3373ffffffffffffffffffffffffffffffffffffffff166000809054906101000a900473ffffffffffffffffffffffffffffffffffffffff1673ffffffffffffffffffffffffffffffffffffffff161480613e7657503373ffffffffffffffffffffffffffffffffffffffff168773ffffffffffffffffffffffffffffffffffffffff16145b613ee8576040517f08c379a00000000000000000000000000000000000000000000000000000000081526004018080602001828103825260198152602001807f5b4552522d31303130335d204143434553535f44454e4945440000000000000081525060200191505060405180910390fd5b8673ffffffffffffffffffffffffffffffffffffffff167f3db4f9049ca3bf8ab1f73fae8a41c3b43c1f6489ccde1f48bb7c3abe0f9431ef874340604051808381526020018281526020019250505060405180910390a26004600087815260200190815260200160002060009054906101000a900473ffffffffffffffffffffffffffffffffffffffff1673ffffffffffffffffffffffffffffffffffffffff168773ffffffffffffffffffffffffffffffffffffffff167f113f9ac1a0268288c996d5143754742041e79a413a4aef7002aaf66f50d3b3e888600143406040518084815260200183151515158152602001828152602001935050505060405180910390a3600560008781526020019081526020016000206000018054600181600116156101000203166002900480601f0160208091040260200160405190810160405280929190818152602001828054600181600116156101000203166002900480156140975780601f1061406c57610100808354040283529160200191614097565b820191906000526020600020905b81548152906001019060200180831161407a57829003601f168201915b50505050509350600560008781526020019081526020016000206001018054600181600116156101000203166002900480601f0160208091040260200160405190810160405280929190818152602001828054600181600116156101000203166002900480156141485780601f1061411d57610100808354040283529160200191614148565b820191906000526020600020905b81548152906001019060200180831161412b57829003601f168201915b50505050509250600560008781526020019081526020016000206002018054600181600116156101000203166002900480601f0160208091040260200160405190810160405280929190818152602001828054600181600116156101000203166002900480156141f95780601f106141ce576101008083540402835291602001916141f9565b820191906000526020600020905b8154815290600101906020018083116141dc57829003601f168201915b50505050509150600560008781526020019081526020016000206003018054600181600116156101000203166002900480601f0160208091040260200160405190810160405280929190818152602001828054600181600116156101000203166002900480156142aa5780601f1061427f576101008083540402835291602001916142aa565b820191906000526020600020905b81548152906001019060200180831161428d57829003601f168201915b50505050509050600194509295509295909350565b60006001600083815260200190815260200160002060009054906101000a900460ff16614337576040517f08c379a00000000000000000000000000000000000000000000000000000000081526004018080602001828103825260248152602001806151316024913960400191505060405180910390fd5b3373ffffffffffffffffffffffffffffffffffffffff166000809054906101000a900473ffffffffffffffffffffffffffffffffffffffff1673ffffffffffffffffffffffffffffffffffffffff1614806143bd57503373ffffffffffffffffffffffffffffffffffffffff168373ffffffffffffffffffffffffffffffffffffffff16145b61442f576040517f08c379a00000000000000000000000000000000000000000000000000000000081526004018080602001828103825260198152602001807f5b4552522d31303036335d204143434553535f44454e4945440000000000000081525060200191505060405180910390fd5b8273ffffffffffffffffffffffffffffffffffffffff166004600084815260200190815260200160002060009054906101000a900473ffffffffffffffffffffffffffffffffffffffff1673ffffffffffffffffffffffffffffffffffffffff1614614503576040517f08c379a000000000000000000000000000000000000000000000000000000000815260040180806020018281038252601f8152602001807f5b4552522d31303036345d204d454d4245525f49535f4e4f545f4f574e45520081525060200191505060405180910390fd5b6000600660008573ffffffffffffffffffffffffffffffffffffffff1673ffffffffffffffffffffffffffffffffffffffff16815260200190815260200160002060010160008481526020019081526020016000205414156145b0576040517f08c379a00000000000000000000000000000000000000000000000000000000081526004018080602001828103825260238152602001806150c66023913960400191505060405180910390fd5b60006001600660008673ffffffffffffffffffffffffffffffffffffffff1673ffffffffffffffffffffffffffffffffffffffff1681526020019081526020016000206001016000858152602001908152602001600020540390506000600660008673ffffffffffffffffffffffffffffffffffffffff1673ffffffffffffffffffffffffffffffffffffffff168152602001908152602001600020600201828154811061465a57fe5b906000526020600020015490506000600660008773ffffffffffffffffffffffffffffffffffffffff1673ffffffffffffffffffffffffffffffffffffffff1681526020019081526020016000206002016001600660008973ffffffffffffffffffffffffffffffffffffffff1673ffffffffffffffffffffffffffffffffffffffff1681526020019081526020016000206000015403815481106146fb57fe5b9060005260206000200154905080600660008873ffffffffffffffffffffffffffffffffffffffff1673ffffffffffffffffffffffffffffffffffffffff168152602001908152602001600020600201848154811061475657fe5b90600052602060002001819055506000600660008873ffffffffffffffffffffffffffffffffffffffff1673ffffffffffffffffffffffffffffffffffffffff16815260200190815260200160002060010160008481526020019081526020016000208190555060018301600660008873ffffffffffffffffffffffffffffffffffffffff1673ffffffffffffffffffffffffffffffffffffffff1681526020019081526020016000206001016000838152602001908152602001600020819055506001600660008873ffffffffffffffffffffffffffffffffffffffff1673ffffffffffffffffffffffffffffffffffffffff16815260200190815260200160002060000160008282540392505081905550600660008773ffffffffffffffffffffffffffffffffffffffff1673ffffffffffffffffffffffffffffffffffffffff1681526020019081526020016000206002018054806148b457fe5b6001900381819060005260206000200160009055905560006001600087815260200190815260200160002060006101000a81548160ff02191690831515021790555060006004600087815260200190815260200160002060006101000a81548173ffffffffffffffffffffffffffffffffffffffff021916908373ffffffffffffffffffffffffffffffffffffffff1602179055506060600560008781526020019081526020016000206000018054600181600116156101000203166002900480601f0160208091040260200160405190810160405280929190818152602001828054600181600116156101000203166002900480156149f55780601f106149ca576101008083540402835291602001916149f5565b820191906000526020600020905b8154815290600101906020018083116149d857829003601f168201915b505050505090506060600560008881526020019081526020016000206001018054600181600116156101000203166002900480601f016020809104026020016040519081016040528092919081815260200182805460018160011615610100020316600290048015614aa85780601f10614a7d57610100808354040283529160200191614aa8565b820191906000526020600020905b815481529060010190602001808311614a8b57829003601f168201915b505050505090506060600560008981526020019081526020016000206002018054600181600116156101000203166002900480601f016020809104026020016040519081016040528092919081815260200182805460018160011615610100020316600290048015614b5b5780601f10614b3057610100808354040283529160200191614b5b565b820191906000526020600020905b815481529060010190602001808311614b3e57829003601f168201915b505050505090506060600560008a81526020019081526020016000206003018054600181600116156101000203166002900480601f016020809104026020016040519081016040528092919081815260200182805460018160011615610100020316600290048015614c0e5780601f10614be357610100808354040283529160200191614c0e565b820191906000526020600020905b815481529060010190602001808311614bf157829003601f168201915b50505050509050604051806080016040528060405180602001604052806000815250815260200160405180602001604052806000815250815260200160405180602001604052806000815250815260200160405180602001604052806000815250815250600560008b81526020019081526020016000206000820151816000019080519060200190614ca1929190614f91565b506020820151816001019080519060200190614cbe929190614f91565b506040820151816002019080519060200190614cdb929190614f91565b506060820151816003019080519060200190614cf8929190614f91565b50905050888a73ffffffffffffffffffffffffffffffffffffffff167fc5aa2d5d8496a27183f733c58d95f1c960b411a6b0a209893b9427b1f5a77bb2868686864340604051808060200180602001806020018060200186815260200185810385528a818151815260200191508051906020019080838360005b83811015614d8d578082015181840152602081019050614d72565b50505050905090810190601f168015614dba5780820380516001836020036101000a031916815260200191505b50858103845289818151815260200191508051906020019080838360005b83811015614df3578082015181840152602081019050614dd8565b50505050905090810190601f168015614e205780820380516001836020036101000a031916815260200191505b50858103835288818151815260200191508051906020019080838360005b83811015614e59578082015181840152602081019050614e3e565b50505050905090810190601f168015614e865780820380516001836020036101000a031916815260200191505b50858103825287818151815260200191508051906020019080838360005b83811015614ebf578082015181840152602081019050614ea4565b50505050905090810190601f168015614eec5780820380516001836020036101000a031916815260200191505b50995050505050505050505060405180910390a3600197505050505050505092915050565b828054600181600116156101000203166002900490600052602060002090601f016020900481019282601f10614f5257805160ff1916838001178555614f80565b82800160010185558215614f80579182015b82811115614f7f578251825591602001919060010190614f64565b5b509050614f8d9190615011565b5090565b828054600181600116156101000203166002900490600052602060002090601f016020900481019282601f10614fd257805160ff1916838001178555615000565b82800160010185558215615000579182015b82811115614fff578251825591602001919060010190614fe4565b5b50905061500d9190615011565b5090565b61503391905b8082111561502f576000816000905550600101615017565b5090565b9056fe5b4552522d31303038305d205245534944454e43455f4e554d5f4e4f545f4558495354535b4552522d31303034305d205245534944454e43455f4e554d5f4e4f545f4558495354535b4552522d31303035345d2046524f4d5f4d454d4245525f49535f4e4f545f4f574e45525b4552522d31303035355d205245534944454e43455f4e554d5f4e4f545f464f554e445b4552522d31303036355d205245534944454e43455f4e554d5f4e4f545f464f554e445b4552522d31303035305d205245534944454e43455f4e554d5f4e4f545f4558495354535b4552522d31303037305d205245534944454e43455f4e554d5f4e4f545f4558495354535b4552522d31303036305d205245534944454e43455f4e554d5f4e4f545f4558495354535b4552522d31303130305d205245534944454e43455f4e554d5f4e4f545f455849535453a265627a7a723158200f03df74f0df5dc6ce1b847cae096926d2b13de30075a128f73a5cfdb6db3fd264736f6c63430005100032",
  "source": "//LXServiceHost   README\n// \n//[****0]: RESIDENCE_NUM_<EXISTANCE> /       (uniqueResidenceNum  )\n//[****1]: MYGEONICK_<EXISTANCE> / MyGeonick     (uniqueMyGeonick  )\n//[****2]: GS1_CODE_<EXISTANCE> / GS1      (uniqueGS1Code  )\n//[****3]: ACCESS_DENIED /       ,          \n//[****4]: MEMBER_IS_<OWNERSHIP> /        (residenceOwner  )\n//[****5]: RESIDENCE_NUM_<EXISTANCE> /        (Member   residenceIndex )\n//\n// \n//RegisterMember:  \n//RegisterNewResidence:    \n//UpdateResidence:   \n//DeleteResidence:   \n//PreConsentTo:    \n//RealTimeConsentTo:    \n//RequestForAddress:      \n//DeregisterMember:   \n//\n//  \n// (MyGeonick)        ,               .\n//(ex) 15    15           .\n//        >>               .\n//             .\n//\n//\n//--!       isActive              ?\n//--!    vs   ?\n//--! ERC-20  \n\npragma solidity ^0.5.0;\n\ncontract LXServiceHost {\n    //     \n    struct Residence {\n        string myGeonick;\n        string gs1;\n        string streetAddress;\n        string gridAddress;\n        mapping(address => bool) accessApproved; // /    \n    }\n\n    // ()    \n    struct Member {\n        uint256 residencesNumCount;\n        mapping(uint256 => uint256) residencesIndex; //EDIT address pk - index of array map\n        uint256[] residencesNum;\n    }\n    \n    address admin;\n    mapping(uint256 => bool) uniqueResidencesNum; // ( )  \n    mapping(string => bool) uniqueMyGeonick;      //   \n    mapping(string => bool) uniqueGS1Code;        // gs1  \n    mapping(uint256 => address) residencesOwner;  //  -    \n    mapping(uint256 => Residence) residences;     //  -    \n    mapping(address => Member) members;           // -    \n\n    //ERC-20    \n    //mapping(address => uint256) balances;\n    \n    event RegisterMember(address indexed _memberAddr, uint256 indexed _memberNum, bytes32 _blockhash);\n    event RegisterNewResidence(address indexed _memberAddr, uint256 indexed _residencesNum, string _myGeonick, string _gs1, string _streetAddress, string _gridAddress, bytes32 _blockhash);\n    event UpdateResidence(address indexed _memberAddr, uint256 indexed _residencesNum, string _myGeonick, string _gs1, string _streetAddress, string _gridAddress, bytes32 _blockhash);\n    event DeleteResidence(address indexed _memberAddr, uint256 indexed _residencesNum, string _myGeonick, string _gs1, string _streetAddress, string _gridAddress, bytes32 _blockhash);\n    event PreConsentTo(address indexed _requesterAddr, address indexed _memberAddr, uint256 _residencesNum, bool _approvalStatus, bytes32 _blockhash);\n    event RealTimeConsentTo(address indexed _requesterAddr, address indexed _memberAddr, uint256 _residencesNum, bool _approvalStatus, bytes32 _blockhash);\n    event RequestForAddress(address indexed _requesterAddr, uint256 _residencesNum, bytes32 _blockhash);\n    event DeregisterMember(address indexed _memberAddr, uint256 indexed _memberNum, bytes32 _blockhash);\n\n\n    //(constructor):      \n    constructor() public {admin = msg.sender;}\n\n    //[[   ]]\n    //  \n    //---\n    //  _memberAddr:  SC\n    //  _memberNum:  \n    //---\n    // bool:    /  (   )\n    function registerMember(address _memberAddr, uint256 _memberPk) public returns(bool) {\n        emit RegisterMember(_memberAddr, _memberPk, blockhash(block.number));\n        return true;\n    }\n\n    // \n    //---\n    //  _memberAddr:  SC\n    //  _memberPk:  \n    //---\n    function deregisterMember(address _memberAddr, uint256 _memberPk) public returns(bool) {\n        require(admin == msg.sender || _memberAddr == msg.sender, \"[ERR-10093] ACCESS_DENIED\");\n        //remove all Residence info\n        for(uint i = 0; i < members[_memberAddr].residencesNumCount; i++) {\n            uint256 resNum = members[_memberAddr].residencesNum[i];\n            uniqueMyGeonick[residences[resNum].myGeonick] = false;\n            uniqueGS1Code[residences[resNum].gs1] = false;\n            uniqueResidencesNum[resNum] = false;\n            residencesOwner[resNum] = address(0);\n            residences[resNum] = Residence({myGeonick: '', gs1: '', streetAddress: '', gridAddress: ''});\n        }\n        emit DeregisterMember(_memberAddr, _memberPk, blockhash(block.number));\n        return true;\n    }\n\n    //[[    ]]\n    //  \n    //---\n    //  _memberAddr:  SC\n    //  _residencesNum:    \n    //  _myGeonick:  \n    //  _gs1: gs1\n    //  _streetAddress:  \n    //  _gridAddress: \n    //---\n    //  bool:    /  (   )\n    function registerResidence(\n        address _memberAddr,\n        uint256 _residencesNum, \n        string memory _myGeonick,\n        string memory _gs1,\n        string memory _streetAddress,\n        string memory _gridAddress) public returns(bool) {\n            require(!uniqueResidencesNum[_residencesNum], \"[ERR-10010] RESIDENCE_NUM_EXISTS\");\n            require(!uniqueMyGeonick[_myGeonick], \"[ERR-10011] MYGEONICK_EXISTS\"); \n            require(!uniqueGS1Code[_gs1], \"[ERR-10012] GS1_CODE_EXISTS\");\n            require(admin == msg.sender || _memberAddr == msg.sender, \"[ERR-10013] ACCESS_DENIED\");\n            \n            uniqueResidencesNum[_residencesNum] = true;\n            uniqueMyGeonick[_myGeonick] = true;\n            uniqueGS1Code[_gs1] = true;\n            residences[_residencesNum] = Residence({myGeonick: _myGeonick, gs1: _gs1, streetAddress: _streetAddress, gridAddress: _gridAddress});\n            residencesOwner[_residencesNum] = _memberAddr;\n            //push > save index location > increase count\n            members[_memberAddr].residencesNum.push(_residencesNum);\n            members[_memberAddr].residencesNumCount += 1;\n            members[_memberAddr].residencesIndex[_residencesNum] = members[_memberAddr].residencesNumCount;\n            emit RegisterNewResidence(_memberAddr, _residencesNum, _myGeonick, _gs1, _streetAddress, _gridAddress, blockhash(block.number));\n            return true;\n    }\n    \n    //   \n    //---\n    //  _memberAddr:  SC\n    //  _residencesNum:    \n    //  _myGeonick:  \n    //  _gs1: gs1\n    //  _streetAddress:  \n    //  _gridAddress: \n    //---\n    function updateResidence(\n        address _memberAddr,\n        uint256 _residencesNum,\n        string memory _myGeonick,\n        string memory _gs1,\n        string memory _streetAddress,\n        string memory _gridAddress) public returns(bool) {\n        require(uniqueResidencesNum[_residencesNum], \"[ERR-10040] RESIDENCE_NUM_NOT_EXISTS\");\n        require(!uniqueMyGeonick[_myGeonick], \"[ERR-10041] MYGEONICK_EXISTS\"); \n        require(!uniqueGS1Code[_gs1], \"[ERR-10042] GS1_CODE_EXISTS\");\n        require(admin == msg.sender || _memberAddr == msg.sender, \"[ERR-10043] ACCESS_DENIED\");\n        require(residencesOwner[_residencesNum] ==  _memberAddr, \"[ERR-10044] MEMBER_IS_NOT_OWNER\");\n        \n        //       \n        if (keccak256(bytes(_myGeonick)) == keccak256(bytes(\"\"))) {\n            _myGeonick = residences[_residencesNum].myGeonick;\n        }\n        if (keccak256(bytes(_gs1)) == keccak256(bytes(\"\"))) {\n            _gs1 = residences[_residencesNum].gs1;\n        }\n        if (keccak256(bytes(_streetAddress)) == keccak256(bytes(\"\"))) {\n            _streetAddress = residences[_residencesNum].streetAddress;\n        }\n        if (keccak256(bytes(_gridAddress)) == keccak256(bytes(\"\"))) {\n            _gridAddress = residences[_residencesNum].gridAddress;\n        }\n        residences[_residencesNum] = Residence({myGeonick: _myGeonick, gs1: _gs1, streetAddress: _streetAddress, gridAddress: _gridAddress});\n        emit UpdateResidence(_memberAddr, _residencesNum, _myGeonick, _gs1, _streetAddress, _gridAddress, blockhash(block.number));\n        return true;\n    }\n    \n    //    ( )\n    //---\n    //  _memberAddrFrom:     SC\n    //  _memberAddrTo:    SC\n    //  _residencesNum:  \n    //---\n    function transferOwnershipTo(\n        address _memberAddrFrom,\n        address _memberAddrTo, \n        uint256 _residencesNum) public returns(bool) {\n        require(uniqueResidencesNum[_residencesNum], \"[ERR-10050] RESIDENCE_NUM_NOT_EXISTS\");\n        require(admin == msg.sender || _memberAddrFrom == msg.sender, \"[ERR-10053] ACCESS_DENIED\");\n        require(residencesOwner[_residencesNum] == _memberAddrFrom, \"[ERR-10054] FROM_MEMBER_IS_NOT_OWNER\");\n        require(members[_memberAddrFrom].residencesIndex[_residencesNum] != 0, \"[ERR-10055] RESIDENCE_NUM_NOT_FOUND\");\n        //override and pop  ( 0  )\n        uint256 deleteIndex = members[_memberAddrFrom].residencesIndex[_residencesNum]-1;\n        uint256 deleteItem = members[_memberAddrFrom].residencesNum[deleteIndex];\n        uint256 lastItem = members[_memberAddrFrom].residencesNum[members[_memberAddrFrom].residencesNumCount-1];\n        members[_memberAddrFrom].residencesNum[deleteIndex] = lastItem;\n        members[_memberAddrFrom].residencesIndex[deleteItem] = 0;\n        members[_memberAddrFrom].residencesIndex[lastItem] = deleteIndex+1;\n        members[_memberAddrFrom].residencesNumCount -= 1;\n        members[_memberAddrFrom].residencesNum.pop();\n        //--!.    MyGeonick \n        residences[_residencesNum].streetAddress = '';\n        residences[_residencesNum].gridAddress = '';\n        residencesOwner[_residencesNum] = _memberAddrTo;\n        //   \n        members[_memberAddrTo].residencesNum.push(_residencesNum);\n        members[_memberAddrTo].residencesNumCount += 1;\n        members[_memberAddrTo].residencesIndex[_residencesNum] = members[_memberAddrTo].residencesNumCount;\n        return true;\n    } \n    \n    //   ( ,  README )\n    //---\n    //  _memberAddr:  SC\n    //  _residencesNum:   \n    //---\n    function deleteResidence(\n        address _memberAddr,\n        uint256 _residencesNum) public returns(bool) {\n        require(uniqueResidencesNum[_residencesNum], \"[ERR-10060] RESIDENCE_NUM_NOT_EXISTS\");\n        require(admin == msg.sender || _memberAddr == msg.sender, \"[ERR-10063] ACCESS_DENIED\");\n        require(residencesOwner[_residencesNum] == _memberAddr, \"[ERR-10064] MEMBER_IS_NOT_OWNER\");\n        require(members[_memberAddr].residencesIndex[_residencesNum] != 0, \"[ERR-10065] RESIDENCE_NUM_NOT_FOUND\");\n        //override and pop  ( 0  )\n        uint256 deleteIndex = members[_memberAddr].residencesIndex[_residencesNum]-1;\n        uint256 deleteItem = members[_memberAddr].residencesNum[deleteIndex];\n        uint256 lastItem = members[_memberAddr].residencesNum[members[_memberAddr].residencesNumCount-1];\n        members[_memberAddr].residencesNum[deleteIndex] = lastItem;\n        members[_memberAddr].residencesIndex[deleteItem] = 0;\n        members[_memberAddr].residencesIndex[lastItem] = deleteIndex+1;\n        members[_memberAddr].residencesNumCount -= 1;\n        members[_memberAddr].residencesNum.pop();\n        //     \n        uniqueResidencesNum[_residencesNum] = false;\n        //mapping \n        residencesOwner[_residencesNum] = address(0);\n        string memory _myGeonick = residences[_residencesNum].myGeonick;\n        string memory _gs1 = residences[_residencesNum].gs1;\n        string memory _streetAddress = residences[_residencesNum].streetAddress;\n        string memory _gridAddress = residences[_residencesNum].gridAddress;\n        residences[_residencesNum] = Residence({myGeonick: '', gs1: '', streetAddress: '', gridAddress: ''});\n        emit DeleteResidence(_memberAddr, _residencesNum, _myGeonick, _gs1, _streetAddress, _gridAddress, blockhash(block.number));\n        return true;\n    }\n    \n    //   ()\n    //---\n    //  _memberAddr:  SC\n    //  _requester      SC\n    //  _residencesNum   \n    //  _approvalStatus     true,    false\n    //---\n    function allowAccessTo(\n        address _memberAddr,\n        address _requester, \n        uint256 _residencesNum, \n        bool _approvalStatus) public returns(bool) {\n        require(uniqueResidencesNum[_residencesNum], \"[ERR-10070] RESIDENCE_NUM_NOT_EXISTS\");\n        require(admin == msg.sender || _memberAddr == msg.sender, \"[ERR-10073] ACCESS_DENIED\");\n        require(residencesOwner[_residencesNum] == _memberAddr, \"[ERR-10074] MEMBER_IS_NOT_OWNER\");\n        \n        residences[_residencesNum].accessApproved[_requester] = _approvalStatus;\n        emit PreConsentTo(_memberAddr, _requester, _residencesNum, _approvalStatus, blockhash(block.number));\n        return true;\n    }\n\n    //    ()\n    //---\n    //  _requestFrom     SC\n    //  _residencesNum    \n    //---\n    //  _myGeonick:  \n    //  _gs1: gs1\n    //  _streetAddress:  \n    //  _gridAddress: \n    function getResidence(\n        address _requestFrom,\n        uint256 _residencesNum) public returns(\n            bool _success, \n            string memory _myGeonick,\n            string memory _gs1,\n            string memory _streetAddress,\n            string memory _gridAddress) {\n        require(uniqueResidencesNum[_residencesNum], \"[ERR-10080] RESIDENCE_NUM_NOT_EXISTS\");\n        require(admin == msg.sender || _requestFrom == msg.sender, \"[ERR-10083] ACCESS_DENIED\");\n        //   , ,   success true   \n        if(residences[_residencesNum].accessApproved[_requestFrom] || \n            residencesOwner[_residencesNum] == _requestFrom ||\n            admin == _requestFrom) {\n            //   () \n            emit RequestForAddress(_requestFrom, _residencesNum, blockhash(block.number));\n            _myGeonick = residences[_residencesNum].myGeonick;\n            _gs1 = residences[_residencesNum].gs1;\n            _streetAddress = residences[_residencesNum].streetAddress;\n            _gridAddress = residences[_residencesNum].gridAddress;\n            _success = true;\n        }\n        //    success false    \n        else {\n            //     \n            _myGeonick = '';\n            _gs1 = '';\n            _streetAddress = '';\n            _gridAddress = '';\n            _success = false;\n        }\n    }\n\n    //    ()\n    //---\n    //  _requestFrom     SC\n    //  _residencesNum    \n    //---\n    //  _myGeonick:  \n    //  _gs1: gs1\n    //  _streetAddress:  \n    //  _gridAddress: \n    function getRealtimeConsent(\n        address _requestFrom,\n        uint256 _residencesNum) public returns(\n            bool _success, \n            string memory _myGeonick,\n            string memory _gs1,\n            string memory _streetAddress,\n            string memory _gridAddress) {\n        require(uniqueResidencesNum[_residencesNum], \"[ERR-10100] RESIDENCE_NUM_NOT_EXISTS\");\n        require(admin == msg.sender || _requestFrom == msg.sender, \"[ERR-10103] ACCESS_DENIED\");\n        emit RequestForAddress(_requestFrom, _residencesNum, blockhash(block.number));\n        emit RealTimeConsentTo(_requestFrom, residencesOwner[_residencesNum], _residencesNum, true, blockhash(block.number));\n        _myGeonick = residences[_residencesNum].myGeonick;\n        _gs1 = residences[_residencesNum].gs1;\n        _streetAddress = residences[_residencesNum].streetAddress;\n        _gridAddress = residences[_residencesNum].gridAddress;\n        _success = true;\n    }\n    //[[      ]]\n    //     (  )\n    //---\n    //  _memberAddr:  SC\n    //---\n    //  _residencesNumCount:     \n    function getResidenceCount(address _memberAddr) public view returns(bool _success, uint256 _residencesNumCount) {\n        require(admin == msg.sender || _memberAddr == msg.sender, \"[ERR-10023] ACCESS_DENIED\");\n        _residencesNumCount = members[_memberAddr].residencesNumCount ;\n        _success = true;\n    }\n\n    //      (  )\n    //---\n    //  _memberAddr:  SC\n    //---\n    //  _residenceList:     \n    function getResidenceList(address _memberAddr) public view returns(bool _success, uint256[] memory _residenceList) {\n        require(admin == msg.sender || _memberAddr == msg.sender, \"[ERR-10033] ACCESS_DENIED\");\n        _residenceList = members[_memberAddr].residencesNum;\n        _success = true;\n    }\n\n    //  gs1    \n    //---\n    //  _myGeonick:   \n    //  _gs1:   gs1 \n    //---\n    function freeMyGeonick(string memory _myGeonick, string memory _gs1) public returns(bool _success) {\n        require(admin == msg.sender, \"[ERR-10113] ACCESS_DENIED\");\n        uniqueMyGeonick[_myGeonick] = false;\n        uniqueGS1Code[_gs1] = false;\n        return true;\n    }\n}",
  "sourcePath": "/Users/junhakim/Developer/lx-proj-server/contracts/LXServiceHost.sol",
  "compiler": {
    "name": "solc",
    "version": "0.5.16+commit.9c3226ce.Emscripten.clang"
  },
  "schemaVersion": "3.2.0",
  "updatedAt": "2020-07-08T04:35:11.025Z",
  "networkType": "ethereum",
  "devdoc": {
    "methods": {}
  },
  "userdoc": {
    "methods": {}
  }
}